{
  "_format": "hh-sol-artifact-1",
  "contractName": "Casino",
  "sourceName": "contracts/Casino.sol",
  "abi": [
    {
      "inputs": [
        {
          "internalType": "uint256",
          "name": "_minimumBet",
          "type": "uint256"
        }
      ],
      "stateMutability": "nonpayable",
      "type": "constructor"
    },
    {
      "inputs": [
        {
          "internalType": "uint256",
          "name": "numberSelected",
          "type": "uint256"
        }
      ],
      "name": "bet",
      "outputs": [],
      "stateMutability": "payable",
      "type": "function"
    },
    {
      "inputs": [
        {
          "internalType": "address",
          "name": "player",
          "type": "address"
        }
      ],
      "name": "checkPlayerExists",
      "outputs": [
        {
          "internalType": "bool",
          "name": "",
          "type": "bool"
        }
      ],
      "stateMutability": "view",
      "type": "function"
    },
    {
      "inputs": [
        {
          "internalType": "uint256",
          "name": "numberWinner",
          "type": "uint256"
        }
      ],
      "name": "distributePrizes",
      "outputs": [],
      "stateMutability": "nonpayable",
      "type": "function"
    },
    {
      "inputs": [],
      "name": "etherFallback",
      "outputs": [],
      "stateMutability": "payable",
      "type": "function"
    },
    {
      "inputs": [],
      "name": "generateNumberWinner",
      "outputs": [],
      "stateMutability": "nonpayable",
      "type": "function"
    },
    {
      "inputs": [],
      "name": "maxAmountOfBets",
      "outputs": [
        {
          "internalType": "uint256",
          "name": "",
          "type": "uint256"
        }
      ],
      "stateMutability": "view",
      "type": "function"
    },
    {
      "inputs": [],
      "name": "minimumBet",
      "outputs": [
        {
          "internalType": "uint256",
          "name": "",
          "type": "uint256"
        }
      ],
      "stateMutability": "view",
      "type": "function"
    },
    {
      "inputs": [],
      "name": "numberOfBets",
      "outputs": [
        {
          "internalType": "uint256",
          "name": "",
          "type": "uint256"
        }
      ],
      "stateMutability": "view",
      "type": "function"
    },
    {
      "inputs": [],
      "name": "owner",
      "outputs": [
        {
          "internalType": "address",
          "name": "",
          "type": "address"
        }
      ],
      "stateMutability": "view",
      "type": "function"
    },
    {
      "inputs": [
        {
          "internalType": "address",
          "name": "",
          "type": "address"
        }
      ],
      "name": "playerInfo",
      "outputs": [
        {
          "internalType": "uint256",
          "name": "amountBet",
          "type": "uint256"
        },
        {
          "internalType": "uint256",
          "name": "numberSelected",
          "type": "uint256"
        }
      ],
      "stateMutability": "view",
      "type": "function"
    },
    {
      "inputs": [
        {
          "internalType": "uint256",
          "name": "",
          "type": "uint256"
        }
      ],
      "name": "players",
      "outputs": [
        {
          "internalType": "address",
          "name": "",
          "type": "address"
        }
      ],
      "stateMutability": "view",
      "type": "function"
    },
    {
      "inputs": [],
      "name": "totalBet",
      "outputs": [
        {
          "internalType": "uint256",
          "name": "",
          "type": "uint256"
        }
      ],
      "stateMutability": "view",
      "type": "function"
    }
  ],
  "bytecode": "0x6080604052606460045534801561001557600080fd5b50604051610cb6380380610cb6833981810160405281019061003791906100c8565b336000806101000a81548173ffffffffffffffffffffffffffffffffffffffff021916908373ffffffffffffffffffffffffffffffffffffffff1602179055506000811461008757806001819055505b506100f5565b600080fd5b6000819050919050565b6100a581610092565b81146100b057600080fd5b50565b6000815190506100c28161009c565b92915050565b6000602082840312156100de576100dd61008d565b5b60006100ec848285016100b3565b91505092915050565b610bb2806101046000396000f3fe6080604052600436106100a75760003560e01c80638da5cb5b116100645780638da5cb5b146101ae578063c38a8afd146101d9578063c9fe7de614610204578063e08a96cd1461020e578063f71d96cb14610239578063fe5e185314610276576100a7565b80630a50e361146100ac5780632ca8c6d3146100c35780634081d916146100ee5780634b1146911461012b5780636ca3fc3b146101695780637365870b14610192575b600080fd5b3480156100b857600080fd5b506100c16102a1565b005b3480156100cf57600080fd5b506100d86102ca565b6040516100e59190610861565b60405180910390f35b3480156100fa57600080fd5b50610115600480360381019061011091906108df565b6102d0565b6040516101229190610927565b60405180910390f35b34801561013757600080fd5b50610152600480360381019061014d91906108df565b61037f565b604051610160929190610942565b60405180910390f35b34801561017557600080fd5b50610190600480360381019061018b9190610997565b6103a3565b005b6101ac60048036038101906101a79190610997565b6105fa565b005b3480156101ba57600080fd5b506101c3610770565b6040516101d091906109d3565b60405180910390f35b3480156101e557600080fd5b506101ee610794565b6040516101fb9190610861565b60405180910390f35b61020c61079a565b005b34801561021a57600080fd5b5061022361079c565b6040516102309190610861565b60405180910390f35b34801561024557600080fd5b50610260600480360381019061025b9190610997565b6107a2565b60405161026d91906109d3565b60405180910390f35b34801561028257600080fd5b5061028b6107e1565b6040516102989190610861565b60405180910390f35b60006001600a436102b29190610a1d565b6102bc9190610a7d565b90506102c7816103a3565b50565b60035481565b600080600090505b600580549050811015610374578273ffffffffffffffffffffffffffffffffffffffff16600582815481106103105761030f610ad3565b5b9060005260206000200160009054906101000a900473ffffffffffffffffffffffffffffffffffffffff1673ffffffffffffffffffffffffffffffffffffffff16141561036157600191505061037a565b808061036c90610b02565b9150506102d8565b50600090505b919050565b60066020528060005260406000206000915090508060000154908060010154905082565b6103ab6107e7565b6000805b600580549050811015610509576000600582815481106103d2576103d1610ad3565b5b9060005260206000200160009054906101000a900473ffffffffffffffffffffffffffffffffffffffff16905084600660008373ffffffffffffffffffffffffffffffffffffffff1673ffffffffffffffffffffffffffffffffffffffff1681526020019081526020016000206001015414156104a3578084846064811061045d5761045c610ad3565b5b602002019073ffffffffffffffffffffffffffffffffffffffff16908173ffffffffffffffffffffffffffffffffffffffff1681525050828061049f90610b02565b9350505b600660008273ffffffffffffffffffffffffffffffffffffffff1673ffffffffffffffffffffffffffffffffffffffff1681526020019081526020016000206000808201600090556001820160009055505050808061050190610b02565b9150506103af565b5060056000610518919061080a565b600060646002546105299190610b4b565b905060005b828110156105f357600073ffffffffffffffffffffffffffffffffffffffff1684826064811061056157610560610ad3565b5b602002015173ffffffffffffffffffffffffffffffffffffffff16146105e05783816064811061059457610593610ad3565b5b602002015173ffffffffffffffffffffffffffffffffffffffff166108fc839081150290604051600060405180830381858888f193505050501580156105de573d6000803e3d6000fd5b505b80806105eb90610b02565b91505061052e565b5050505050565b610603336102d0565b1561060d57600080fd5b6001811015801561061f5750600a8111155b61062857600080fd5b60015434101561063757600080fd5b34600660003373ffffffffffffffffffffffffffffffffffffffff1673ffffffffffffffffffffffffffffffffffffffff1681526020019081526020016000206000018190555080600660003373ffffffffffffffffffffffffffffffffffffffff1673ffffffffffffffffffffffffffffffffffffffff16815260200190815260200160002060010181905550600360008154809291906106d890610b02565b91905055506005339080600181540180825580915050600190039060005260206000200160009091909190916101000a81548173ffffffffffffffffffffffffffffffffffffffff021916908373ffffffffffffffffffffffffffffffffffffffff16021790555034600260008282546107529190610a7d565b925050819055506004546003541061076d5761076c6102a1565b5b50565b60008054906101000a900473ffffffffffffffffffffffffffffffffffffffff1681565b60015481565b565b60045481565b600581815481106107b257600080fd5b906000526020600020016000915054906101000a900473ffffffffffffffffffffffffffffffffffffffff1681565b60025481565b60405180610c800160405280606490602082028036833780820191505090505090565b5080546000825590600052602060002090810190610828919061082b565b50565b5b8082111561084457600081600090555060010161082c565b5090565b6000819050919050565b61085b81610848565b82525050565b60006020820190506108766000830184610852565b92915050565b600080fd5b600073ffffffffffffffffffffffffffffffffffffffff82169050919050565b60006108ac82610881565b9050919050565b6108bc816108a1565b81146108c757600080fd5b50565b6000813590506108d9816108b3565b92915050565b6000602082840312156108f5576108f461087c565b5b6000610903848285016108ca565b91505092915050565b60008115159050919050565b6109218161090c565b82525050565b600060208201905061093c6000830184610918565b92915050565b60006040820190506109576000830185610852565b6109646020830184610852565b9392505050565b61097481610848565b811461097f57600080fd5b50565b6000813590506109918161096b565b92915050565b6000602082840312156109ad576109ac61087c565b5b60006109bb84828501610982565b91505092915050565b6109cd816108a1565b82525050565b60006020820190506109e860008301846109c4565b92915050565b7f4e487b7100000000000000000000000000000000000000000000000000000000600052601260045260246000fd5b6000610a2882610848565b9150610a3383610848565b925082610a4357610a426109ee565b5b828206905092915050565b7f4e487b7100000000000000000000000000000000000000000000000000000000600052601160045260246000fd5b6000610a8882610848565b9150610a9383610848565b9250827fffffffffffffffffffffffffffffffffffffffffffffffffffffffffffffffff03821115610ac857610ac7610a4e565b5b828201905092915050565b7f4e487b7100000000000000000000000000000000000000000000000000000000600052603260045260246000fd5b6000610b0d82610848565b91507fffffffffffffffffffffffffffffffffffffffffffffffffffffffffffffffff821415610b4057610b3f610a4e565b5b600182019050919050565b6000610b5682610848565b9150610b6183610848565b925082610b7157610b706109ee565b5b82820490509291505056fea264697066735822122078c8c10d5e1f4ad995c12c8809905a6d726843881d9ccd7da8db88a4fff4656d64736f6c63430008090033",
  "linkReferences": {},
  "deployedLinkReferences": {}
}