{
  "_format": "hh-sol-artifact-1",
  "contractName": "RefundByLocation",
  "sourceName": "contracts/RefundByLocation.sol",
  "abi": [
    {
      "inputs": [
        {
          "internalType": "address",
          "name": "owner",
          "type": "address"
        },
        {
          "internalType": "uint256",
          "name": "officeLocationLat",
          "type": "uint256"
        },
        {
          "internalType": "uint256",
          "name": "officeLocationLong",
          "type": "uint256"
        },
        {
          "internalType": "uint256",
          "name": "radius",
          "type": "uint256"
        }
      ],
      "stateMutability": "payable",
      "type": "constructor"
    },
    {
      "inputs": [],
      "name": "OfficeLocation",
      "outputs": [
        {
          "internalType": "uint256",
          "name": "lat",
          "type": "uint256"
        },
        {
          "internalType": "uint256",
          "name": "long",
          "type": "uint256"
        }
      ],
      "stateMutability": "view",
      "type": "function"
    },
    {
      "inputs": [],
      "name": "Owner",
      "outputs": [
        {
          "internalType": "address",
          "name": "",
          "type": "address"
        }
      ],
      "stateMutability": "view",
      "type": "function"
    },
    {
      "inputs": [],
      "name": "Radius",
      "outputs": [
        {
          "internalType": "uint256",
          "name": "",
          "type": "uint256"
        }
      ],
      "stateMutability": "view",
      "type": "function"
    },
    {
      "inputs": [
        {
          "internalType": "address",
          "name": "employeeAdd",
          "type": "address"
        },
        {
          "internalType": "uint256",
          "name": "timeStamp",
          "type": "uint256"
        }
      ],
      "name": "getEmployeeLocationInfor",
      "outputs": [],
      "stateMutability": "view",
      "type": "function"
    },
    {
      "inputs": [
        {
          "internalType": "uint256",
          "name": "employeeLocationCoordinateLat",
          "type": "uint256"
        },
        {
          "internalType": "uint256",
          "name": "employeeLocationCoordinateLong",
          "type": "uint256"
        },
        {
          "internalType": "uint256",
          "name": "timeStamp",
          "type": "uint256"
        }
      ],
      "name": "reportLocation",
      "outputs": [],
      "stateMutability": "nonpayable",
      "type": "function"
    }
  ],
  "bytecode": "0x60806040526040516107ca3803806107ca8339818101604052810190610025919061013c565b836000806101000a81548173ffffffffffffffffffffffffffffffffffffffff021916908373ffffffffffffffffffffffffffffffffffffffff1602179055506040518060400160405280848152602001838152506002600082015181600001556020820151816001015590505080600181905550505050506101a3565b600080fd5b600073ffffffffffffffffffffffffffffffffffffffff82169050919050565b60006100d3826100a8565b9050919050565b6100e3816100c8565b81146100ee57600080fd5b50565b600081519050610100816100da565b92915050565b6000819050919050565b61011981610106565b811461012457600080fd5b50565b60008151905061013681610110565b92915050565b60008060008060808587031215610156576101556100a3565b5b6000610164878288016100f1565b945050602061017587828801610127565b935050604061018687828801610127565b925050606061019787828801610127565b91505092959194509250565b610618806101b26000396000f3fe608060405234801561001057600080fd5b50600436106100575760003560e01c80637f7024571461005c57806391de9d6614610078578063b4a99a4e14610096578063b9336313146100b4578063c61f93c7146100d0575b600080fd5b61007660048036038101906100719190610409565b6100ef565b005b6100806101e5565b60405161008d9190610458565b60405180910390f35b61009e6101eb565b6040516100ab9190610482565b60405180910390f35b6100ce60048036038101906100c9919061049d565b61020f565b005b6100d8610299565b6040516100e69291906104f0565b60405180910390f35b6000600560008473ffffffffffffffffffffffffffffffffffffffff1673ffffffffffffffffffffffffffffffffffffffff16815260200190815260200160002090506101896040518060400160405280600d81526020017f6f7665722068657265206c617400000000000000000000000000000000000000815250826000016000858152602001908152602001600020600001546102ab565b6101e06040518060400160405280600e81526020017f6f7665722068657265206c6f6e67000000000000000000000000000000000000815250826000016000858152602001908152602001600020600101546102ab565b505050565b60015481565b60008054906101000a900473ffffffffffffffffffffffffffffffffffffffff1681565b6000600560003373ffffffffffffffffffffffffffffffffffffffff1673ffffffffffffffffffffffffffffffffffffffff1681526020019081526020016000209050604051806040016040528085815260200184815250816000016000848152602001908152602001600020600082015181600001556020820151816001015590505050505050565b60028060000154908060010154905082565b61034382826040516024016102c19291906105b2565b6040516020818303038152906040527f9710a9d0000000000000000000000000000000000000000000000000000000007bffffffffffffffffffffffffffffffffffffffffffffffffffffffff19166020820180517bffffffffffffffffffffffffffffffffffffffffffffffffffffffff8381831617835250505050610347565b5050565b60008151905060006a636f6e736f6c652e6c6f679050602083016000808483855afa5050505050565b600080fd5b600073ffffffffffffffffffffffffffffffffffffffff82169050919050565b60006103a082610375565b9050919050565b6103b081610395565b81146103bb57600080fd5b50565b6000813590506103cd816103a7565b92915050565b6000819050919050565b6103e6816103d3565b81146103f157600080fd5b50565b600081359050610403816103dd565b92915050565b600080604083850312156104205761041f610370565b5b600061042e858286016103be565b925050602061043f858286016103f4565b9150509250929050565b610452816103d3565b82525050565b600060208201905061046d6000830184610449565b92915050565b61047c81610395565b82525050565b60006020820190506104976000830184610473565b92915050565b6000806000606084860312156104b6576104b5610370565b5b60006104c4868287016103f4565b93505060206104d5868287016103f4565b92505060406104e6868287016103f4565b9150509250925092565b60006040820190506105056000830185610449565b6105126020830184610449565b9392505050565b600081519050919050565b600082825260208201905092915050565b60005b83811015610553578082015181840152602081019050610538565b83811115610562576000848401525b50505050565b6000601f19601f8301169050919050565b600061058482610519565b61058e8185610524565b935061059e818560208601610535565b6105a781610568565b840191505092915050565b600060408201905081810360008301526105cc8185610579565b90506105db6020830184610449565b939250505056fea2646970667358221220a71af9ddfd73ef40ee34a15e2494259fb0f3fb9e541224aeb7bde84a730cc8bd64736f6c63430008090033",
  "linkReferences": {},
  "deployedLinkReferences": {}
}